:020000040800F2
:10000000D0110020290200084B4B0008ED330008F6
:10001000494B00089F04000803540008000000003A
:100020000000000000000000000000001D52000859
:100030005D050008000000007D4E00081F5200080A
:10004000430200084302000843020008430200087C
:10005000430200084302000843020008430200086C
:10006000430200084302000843020008430200085C
:10007000430200084302000843020008430200084C
:10008000430200084302000843020008430200083C
:10009000430200084302000843020008430200082C
:1000A000430200084302000843020008430200081C
:1000B000430200084302000843020008FD33000821
:1000C000F13300084302000843020008814F000892
:1000D00043020008430200084302000843020008EC
:1000E00043020008430200084302000843020008DC
:1000F00043020008430200084302000843020008CC
:1001000043020008430200084302000843020008BB
:1001100043020008430200084302000843020008AB
:10012000A10400084302000843020008AD040008CF
:100130004302000800000000000000004302000825
:10014000430200084302000843020008430200087B
:10015000430200084302000843020008430200086B
:10016000430200084302000843020008430200085B
:1001700043020008430200080000000000000000E5
:10018000430200084302000800F002F800F03CF8C7
:100190000AA090E8000C82448344AAF10107DA45E2
:1001A00001D100F031F8AFF2090EBAE80F0013F0F8
:1001B000010F18BFFB1A43F001031847A06A0000A3
:1001C000C06A0000103A24BF78C878C1FAD8520734
:1001D00024BF30C830C144BF04680C6070470000C1
:1001E0000023002400250026103A28BF78C1FBD840
:1001F000520728BF30C148BF0B6070471FB506F0DB
:1002000048FC1FBD10B510BD00F014F91146FFF7F2
:10021000F5FF06F025FA00F032F903B4FFF7F2FF1C
:1002200003BC00F035F90000094880470948004741
:10023000FEE7FEE7FEE7FEE7FEE7FEE7FEE7FEE796
:10024000FEE7FEE704480549054A064B70470000F3
:10025000B952000889010008D00B0020D0110020FD
:10026000D00D0020D00D002053EA020C00F0698070
:100270002DE9F04B4FF00006002B1FBFB3FA83F5BA
:1002800003FA05F424FA05F65E4012BF1643B2FAEB
:1002900082F502FA05F4C5F120051EBF22FA05FC1D
:1002A00044EA0C04203556EA044C4FEA144418BFC3
:1002B000641C4FF000084FF00009904271EB030CF2
:1002C00039D3002919BFB1FA81F701FA07F6B0FA5C
:1002D00080F700FA07F6C7F120071EBF20FA07FCD7
:1002E00046EA0C062037B6FBF4FCA7EB0507103FE7
:1002F00007F01F0BCBF120060CFA0BFB2CFA06F6CD
:1003000044BFB3460026202FA4BF5E464FF0000B2B
:100310005BEA060C08BF4FF0010B19EB0B09ABFBB6
:10032000027C48EB0608C01B06FB02CC0BFB03CC8F
:1003300071EB0C01C1E70B46024641464846BDE859
:10034000F08B13B54FF000004FF00001AFF30080C9
:10035000BDE81C40704710B5203AC0F00B80B1E8F2
:100360001850203AA0E81850B1E81850A0E81850EA
:10037000BFF4F5AF5FEA027C24BFB1E81850A0E8F3
:10038000185044BF18C918C0BDE810405FEA827C0D
:1003900024BF51F8043B40F8043B08BF7047D20724
:1003A00028BF31F8023B48BF11F8012B28BF20F8C5
:1003B000023B48BF00F8012B70474FF0000200B528
:1003C000134694469646203922BFA0E80C50A0E878
:1003D0000C50B1F12001BFF4F7AF090728BFA0E826
:1003E0000C5048BF0CC05DF804EB890028BF40F8F2
:1003F000042B08BF704748BF20F8022B11F0804F34
:1004000018BF00F8012B704770477047704710B550
:1004100000F008F8006810BD10B5044600F002F8BE
:10042000046010BD00487047700B00200048704702
:10043000700B00207546FFF7F9FFAE4605006946D0
:10044000534620F00700854618B020B5FFF7FAFEA6
:10045000BDE820404FF000064FF000074FF00008C5
:100460004FF0000B21F00701AC46ACE8C009ACE846
:10047000C009ACE8C009ACE8C0098D46704710B5AA
:100480000446AFF300802046BDE81040FFF7C5BE2C
:1004900001491820ABBEFEE7260002007047FEE7C8
:1004A000014801F0E3B80000B00A0020014801F063
:1004B000DDB80000100B002001681823CAB2103A02
:1004C000B2FBF3F2054B6FF30901032A9B5CC36592
:1004D00000D9091D81650846704700009C6A000824
:1004E00010B5014600208B698A6A4FF0C07453B181
:1004F000B3F5005F15D072B1012A0CD0022A0AD0E0
:10050000032A09D104E01AB1012A06D0022A03D134
:10051000C96AC90100D5012010BDC96AA142FAD03B
:1005200010BD002AF7D0012AF2D0022AF3D0032A04
:10053000F3D010BD30B50468256825F4802525600A
:10054000046863608368402B036803D09960006887
:10055000C26030BD9A600068C16030BD7047D1EDA7
:10056000000AF5EEC00AF1EE10FA24D9D1ED010A25
:10057000F5EEC00AF1EE10FA1DD990ED071AD1ED93
:10058000021AF0EE400A91ED030A41EE610AD0ED45
:10059000081A91ED042A41EEC00A91ED050A21EEF8
:1005A000000A00EE820A91ED062A80ED081AC0EDDD
:1005B000070A01EE820A704710B5F5EEC00A2DED6C
:1005C000068BF7EE008AF1EE10FA0446C0ED000A41
:1005D00080ED010A04D9B5EEC00AF1EE10FA0ED88A
:1005E000C4ED048A9FED2D0A84ED030A84ED020A0E
:1005F00084ED060A80ED050ABDEC068B10BD9FED6B
:10060000281A20EE011AB4EEE01AF1EE10FA03D225
:10061000F0EE410AC4ED000A80EE201ADFED210A57
:1006200080EE810A05F048FE9FED1FAAB0EE408AD9
:10063000B0EE4A0A05F0CEF8B0EE009AF0EE680A85
:1006400020EE090A40EE080A48EE080AF0EE609A29
:1006500068EE080A80EEA90A84ED040A60EE090A31
:10066000C4ED050A84ED060AB0EE680A18EE080A21
:1006700020EE090AC0EE290AB0EE4A0AC4ED020AC9
:1006800005F0A8F820EE090A40EE488A48EE088AEC
:1006900088EEA90A84ED030AAEE70000000000001E
:1006A000CDCCCC3EDB0F4940DB0F493F70B5064651
:1006B0002DED048B00F26C54F0EE409A90F8CC05CE
:1006C000F0EE608A04EB80000A21C0ED049A94F8F1
:1006D000600004EB8000C0ED0E8A94F86000401CBE
:1006E000B0FBF1F201FB120084F860009FED508A2C
:1006F0005FF00000F0EE481AB0EE481A04EB8001FB
:10070000401C91ED040A0A2870EE211A91ED0E0AA0
:1007100030EE011AF2DBB2EE042A84ED198A81EE82
:10072000820A84ED1A8A0020C1EE021A04EB8001CD
:1007300094ED191AD1ED040A401C0A2870EEC00A83
:1007400000EEA01A84ED191AD1ED0E0A94ED1A1AD2
:1007500070EEE10A00EEA01A84ED1A1AE6DB94EDC1
:10076000190A06F58065C0EE020A81EE020AC4EDA0
:10077000190A84ED1A0A95ED819A95ED831A00EE17
:10078000819A05F07BFDD5ED820A70EE200A9FED7F
:10079000290A39EEC00AB0EEC00AB4EEC90AF1EE79
:1007A00010FA13D2F4EEE08AF1EE10FA0ED220889D
:1007B0004EF66021884201D2401C208020881428F7
:1007C00033D994F86C10012039B114E00020208056
:1007D00086F8680584F86C00F0E784F86C0095ED05
:1007E000510A84ED010A95ED520A84ED020A95ED55
:1007F000530A84ED030A86F8680585ED4E8A85ED77
:100800004F8A85ED508A85ED488A85ED498A85EDC8
:100810004A8A94ED010A85ED510A94ED020A85EDAC
:10082000520A94ED030A85ED530ABDEC048B70BDAA
:10083000000000000AE81C412DE9F04704462DEDB8
:10084000068BB0EE408A20EE000AB0EE609AF0EE21
:10085000418AAEB000EE890A01EE280A05F00EFDCD
:1008600010EE100A8E4988427EDBDFED8E0A04F519
:100870008065F7EE00AA70EE600A95ED7E1A94EDA1
:1008800003AA89EE002AF0EEE00A94ED009A60EEE9
:10089000A00AF0EE009A04F58A60542140EE81AA85
:1008A0008246C8EE000A94ED018A88EE801A28EE8E
:1008B0000A0AD4ED028A09EE680A60EE291A29EEC6
:1008C000080A70EEE10A08EE8A0ACDED1A0A60EE17
:1008D000292A29EE090A72EE620A08EE480ACDEDCD
:1008E0001B0A08EEE80A0AEE0A0A31EE400A8DED0C
:1008F0001C0AFFF762FDF8EE000A2AEE290A28EE2C
:10090000A01A69EE201A28EEA92A85ED141A85EDA1
:10091000150AC5ED161A68EE291A68EE200A07278F
:10092000C5ED171AC5ED1B1A69EE291A032604F145
:100930001C01C5ED1C1A85ED1D0A85ED1E2AC5EDAD
:10094000221AC5ED230A85ED241A85ED250ACDE985
:10095000007604F2A4403B4652468946804603F0A6
:10096000A3FF0323424600E08DE0CDE90076514627
:1009700004F59F6003F05CFF95ED7A0A05F1FC0138
:100980001DA820EE000A60EE2A0A95ED3E0A30EE20
:10099000200A85ED3E0A95ED421A31EE202A85EDBA
:1009A000422A95ED461A31EE204A85ED464AD1ECB1
:1009B000030A1031D1EC032A03F0CAFF06A91DA8CF
:1009C00004F01FF800285ED09DED060A03228DED8D
:1009D0000F0A9DED070A0FA98DED100A9DED080A7B
:1009E0001AA88DED110A9DED090A8DED120A9DEDF3
:1009F0000A0A8DED130A9DED0B0A8DED140A9DED8B
:100A00000C0A8DED150A9DED0D0A8DED160A9DED72
:100A10000E0A8DED170A95ED7F0A03F0EBFBB8B3D4
:100A2000281F009607230FAA41460546019603F0AA
:100A3000FFFE0120CDE9006007231AAA294627A856
:100A400003F0F6FE2146072327AA084603F0DAFE44
:100A5000204604F07BF8009703234A46514640465F
:100A6000019703F0E5FE04F51D7007234246294671
:100A70000446CDE9006703F0DBFE494631232246F8
:100A8000084603F04FFF2EB0BDEC068BBDE8F087A3
:100A9000FFE7B4F81C05401CA4F81C05F3E70000B0
:100AA000CDCCCC3D0AE81C412DE9F047F7EE001A09
:100AB0002DED088BB0EE008AB0EE612AB6B0044688
:100AC000D0ED029AD0ED038A90ED01BA69EEA92A21
:100AD00090ED009AD0ED38BAD0ED39AA48EEA82AA8
:100AE00090ED3AAA04F58A605421824602EEC82AA3
:100AF0006BEE292AF0EE426AB0EE622A49EE682ACD
:100B000009EE282A22EE884A62EE084A2BEE282AAD
:100B1000F0EE612AB0EE423A09EE292A09EE693A6E
:100B200022EE086A63EE083A2BEE0B3A26EEAB2A69
:100B3000B0EE435A09EEA93A08EEA85A04EEAA2AE2
:100B400043EE481A45EE482A24EE2B3A03EE8A2A51
:100B5000B0EE625A69EEA82A05EE2A3A30EE420A51
:100B6000F0EE625A49EE4B2A49EE0B5A8DED2B0AF4
:100B700022EE887A66EE2B2A65EE885A47EE2A2AFC
:100B800005EE8A3A41EE8A2A30EEC30A8DED2C0A30
:100B900031EE620A8DED2D0AFFF70FFC29EE2B0ACC
:100BA00004F580650727032608EEAA0A04F11C0154
:100BB00004F2A4403B465246894609EECA0A8046E2
:100BC00020EE081A2BEE2B0A85ED141A09EEAA0A5C
:100BD00008EE8A0A60EE080A2BEE2A0AC5ED150A0D
:100BE00009EEEB0A09EE4A0A20EE080A85ED160A1C
:100BF00029EE2A0A08EEEB0A0BEE0A0A20EE080A92
:100C000085ED170A85ED1B0A29EEAB0A0BEE6A0A81
:100C1000F0EE401A09EE0A0A49EE4A1A20EE080AD6
:100C200061EE881AC5ED1C1A69EE6B1AC5ED1D0A36
:100C300048EEEA1A49EE8A1A61EE881AC5ED1E1AC4
:100C400085ED220A28EEAB0A09EE6A0A0BEE4A0A83
:100C500020EE080A85ED230A85ED241AC5ED250A44
:100C6000CDE9007603F020FECDE90076032342466D
:100C7000514604F59F6003F0DBFD95ED7B0A05F11D
:100C8000FC0113A860EE000A95ED3E0A30EE200A42
:100C900085ED3E0A95ED421A31EE202A85ED422A75
:100CA00095ED461A31EE204A85ED464AD1EC030A0D
:100CB0001031D1EC032A03F04BFE20A913A803F056
:100CC000A0FE00285ED09DED200A03228DED0A0AC9
:100CD0009DED210A0AA98DED0B0A9DED220A2BA894
:100CE0008DED0C0A9DED230A8DED0D0A9DED240A74
:100CF0008DED0E0A9DED250A8DED0F0A9DED260A5C
:100D00008DED100A9DED270A8DED110A9DED280A43
:100D10008DED120A95ED800A03F06CFAB8B3281F26
:100D2000009607230AAA41460546019603F080FD76
:100D30000120CDE9006007232BAA29462EA803F045
:100D400077FD214607232EAA084603F05BFD2046C7
:100D500003F0FCFE009703234A46514640460197A4
:100D600003F066FD04F51D7007234246294604463C
:100D7000CDE9006703F05CFD494631232246084671
:100D800003F0D0FD36B0BDEC088BBDE8F087FFE77F
:100D9000B4F81E05401CA4F81E05F3E770B51C4608
:100DA0002DED068BB7EE008AF0EE009AF0EE480AC1
:100DB00090ED01AAD0ED028AD0ED00AA2AEE0A0A2F
:100DC00090ED039A15460E4608EEA80A40EE690A11
:100DD0002AEE8A0A08EE890A20EE290A04F0D2FBDC
:100DE00086ED000A2AEEA80A09EE4A0A20EE290A30
:100DF00004F032FB85ED000A28EEA80AF0EE480A5E
:100E000009EE090A40EE690A2AEE890A0AEE280A62
:100E100020EE290A04F0B6FB84ED000AD6ED000AA4
:100E20009FED0A0A60EE800AC6ED000AD5ED000AC1
:100E300060EE800AC5ED000AD4ED000A20EE800ABB
:100E400084ED000ABDEC068B70BD0000E12E65420A
:100E500010B504462DED028BB0EE408A4FF4C3610D
:100E6000FFF7ABFA04F58061F7EE000A81ED778AAF
:100E70009FED250AC4ED000A81ED790A9FED230A52
:100E80009FED251A81ED7A0A9FED210A002081ED60
:100E90007B0A9FED200A81ED7C0AB1EE040A81ED08
:100EA0007D0A81ED7E1A81ED7F0A81ED800A9FED3A
:100EB0001B0A81ED810A9FED1A0A81ED820AB2EECA
:100EC000040A81ED830AB7EE080A81ED840A9FEDDA
:100ED000150A81ED850A9FED140AC4ED380A84EDE8
:100EE000390A84ED3A0A9FED110A00BF04EB401164
:100EF000401C81ED070A0728F8DB012084F8E00593
:100F0000BDEC028B10BD00006F12033BCDCCCC3D7D
:100F1000CDCC4C3DACC527370000C8429A99993ECC
:100F20000AD7A33C3333733F000000006F12833AAB
:100F30002DE9F04704462DED0E8B9AB0B0EE61DA44
:100F4000F0EE42DAB0EE62EA90F8E00500287CD0DC
:100F5000F0EE40BA94ED040AB0EE60BAF0EE41AAA9
:100F60003BEEC0AA94ED050A04F5806706A93BEEA6
:100F7000409A94ED060AD7ED779A0AA87AEEC08ACD
:100F800094ED000AF0EE490A8DED060A94ED010A8F
:100F9000B0EE681A8DED070A94ED020A8DED080A8D
:100FA00094ED030A8DED090AB0EE4A0A05F014FB30
:100FB000B6EE000A002029EE808A06AD02AE0AA92C
:100FC00005EB80028A4692ED000A01EB8002D2ED29
:100FD000000A06EB8002401C08EE200A042882ED7D
:100FE000000AEDDBB0EE681AF0EE490AB0EE4A0AEC
:100FF00031460EA805F0F0FA00200EA905EB80029C
:10100000894692ED000A01EB8002D2ED000A06EB60
:101010008002401C08EE200A042882ED000AEDDB65
:10102000B0EE681AF0EE490AB0EE4A0A02A912A818
:1010300005F0D2FA00200DF1480800BF05EB800151
:1010400091ED000A08EB800100E00AE1D1ED000A11
:1010500006EB8001401C09EEA00A042881ED000A7D
:10106000ECDBB0EE681AF0EE490AB0EE4A0A02A9CB
:1010700016A805F0B1FAB1EE080A002089EE801A30
:1010800052464B4616ADF0EE000A00BF02EB80015F
:1010900091ED000A03EB8001D1ED001A08EB80010D
:1010A00001EEA00AD1ED001A05EB800101EEA00AC5
:1010B000D1ED001A04EB8001401C042870EE211AC7
:1010C00091ED000A01EE210A81ED000ADEDB2046E7
:1010D00003F03CFD2AEE0A0A09EE090A08EEA80A06
:1010E00005F0CCF8B7EE00CAD7ED7D0AF0EE4CCA99
:1010F00004F1EC0040EE20CAC4218146FFF75DF9FF
:101100005FF0000004EB4011401C81ED3BCA072852
:10111000F8DB2AEE480A2AEE081A68EE880A84EDFF
:101120003C0A29EE480A68EEC81A04F5D87084ED26
:101130003D0A28EEC80AC421804684ED3E0A29EE05
:10114000480A84ED421AC4ED440A84ED450A29EEAA
:10115000080A84ED490AC4ED4A1A84ED4C1AC4ED1C
:10116000500A84ED510A2AEE480A84ED520A94EDA1
:10117000012AD4ED021A94ED031AD4ED000A62EEAE
:10118000082A21EE883A21EE080AC4ED3F2A60EED3
:10119000C83A84ED403A84ED410AC4ED463A84ED04
:1011A000470A21EEC80A84ED480A21EE480A84ED78
:1011B0004D0A20EEC80A84ED4E0A22EE480AC4ED1C
:1011C0004F2A84ED543A84ED550A20EEC80A84ED86
:1011D000560AFFF7F2F897ED790A072504F11C0289
:1011E00020EE000A04F51D702B46164620EE290A53
:1011F000494660EE2C0A97ED7C0A0746C4ED840A46
:1012000020EE000AC4ED7C0AC4ED740AC4ED6C0A39
:1012100020EE290A84ED9C0A84ED940A84ED8C0A60
:101220000095019503F004FB009507234A463946D3
:101230003046019503F038FB3146312342460846DB
:1012400003F0E0FAF0EE6A2AB0EE4B2AF0EE6B1AE9
:10125000B0EE4E1AF0EE6D0AB0EE4D0A204600F0E8
:1012600005F81AB0BDEC0E8BBDE8F08730B500F57F
:1012700080642DED108B81B00546F0EE42CAB0EED1
:1012800061EAB0EE62CAF0EE60DAB0EE41DAB6EED4
:10129000001A94ED77AAE4488DED000A22EE8A0A3E
:1012A00090ED013A6CEE8A1A6EEE0A0A63EE002A9D
:1012B00090ED022AD0ED003A42EE612A22EE202A79
:1012C00003EEC02A63EEA13A62EE812A43EE603A51
:1012D00022EE012A70EEA2BA71EE82AA23EE811AE2
:1012E000C0ED00BAC0ED01AA30EE01BA2BEEAB0A98
:1012F00080ED02BA95ED008A0AEEAA0AD5ED01FA50
:1013000095ED02FAD5ED03EA0BEE0B0A04F0B6FFF9
:1013100010EE100AC549F0EE408A884210DDB6EEA4
:10132000000A68EE809AB0EE690A04F0DFFEB0EEC3
:10133000409AB0EE690A04F04DFAC9EE281A03E0AB
:10134000B7EE000AF6EE001A68EE009A2BEEA11A2C
:101350006AEEA10A6BEE211A4FEEC19A28EE019AAD
:1013600068EE208A28EE218A0FEE809A4FEE609A6E
:101370000FEEA08A4FEEE18A0FEE219A4EEEE19A2F
:101380000FEE418A4FEE008A0EEEE09A0EEE808A52
:1013900029EEA90A4EEE818A09EE090A08EEA80A8A
:1013A00008EE080A04F06AFF10EE100AA04988420D
:1013B0000FDDC9EE800AF0EE609AC9EE000AB0EEC9
:1013C000609AC8EE800AF0EE608AC8EE000AB0EEBD
:1013D000608AC5ED009A85ED019AC5ED028A85ED1A
:1013E000038A9DED000A6DEE8A0A20EE0A1A2DEEA0
:1013F0000A0A2AEE802A0BEE602ADFED8E1A2BEE07
:10140000A03A62EE212A2BEE012A0AEEC13A31EE11
:10141000221A0BEEC02A22EE212A63EE211A70EE68
:10142000822A28EEA82A30EE213AB7EE000AF0EE22
:10143000000A08EE082AF0EE401A42EE601A29EE81
:10144000282AF0EE617AF0EE421A09EE882A49EE77
:10145000C81A62EE205A21EEA05A69EE081AB0EEC0
:10146000402AF0EE613A49EEE81A49EEA83A21EE38
:10147000A07A63EEA04A69EE093A65EE811AB0EEF1
:10148000634A48EEA83A08EE084A04EE602AB0EE35
:10149000426A28EE882A46EE221AB0EE424A09EE47
:1014A000892A09EEC94A22EE208A64EE206AB0EE4B
:1014B000404A27EE010A03EEE04A67EE810A46EE53
:1014C000831A08EE220A45EE220A04EE030A44EECD
:1014D000830AF1EE602ADFED580A94ED4E1A94ED7E
:1014E000502A0AEE600AD4ED4F0A95F8680588BBC9
:1014F000B0EE413A33EE223AF0EE602A72EEA12AC3
:10150000F0EE421A33EE011A71EE801A84ED4E3A73
:10151000B6EE000AC4ED4F2AC4ED501A21EE001AAF
:10152000D4ED513A72EEA00A41EE0A3A60EE800A1A
:10153000C4ED513A94ED521A00EE8A1A84ED521A13
:1015400031EE821AD4ED530A21EE000A40EE0A0A67
:10155000C4ED530A94ED4E1AB3EE0E0AF2EE0E0AE3
:10156000F0EEC11AF4EEC01AF1EE10FA0DDDB5EE90
:10157000C01AF1EE10FA02DDB7EE001A01E0BFEE7C
:10158000001A21EE001A84ED4E1A94ED4F1AF0EE77
:10159000C11AF4EEC01AF1EE10FA0DDDB5EEC01A64
:1015A000F1EE10FA02DDB7EE001A01E0BFEE001A0C
:1015B00021EE000A84ED4F0A94ED500AB0EEC01AF5
:1015C000B4EEE01AF1EE10FA0DDDB5EEC00AF1EE60
:1015D00010FA02DDB7EE000A01E0BFEE000A20EECD
:1015E000200A84ED500A9DED000A20EE000A0DEE5F
:1015F000AD0A0DEE0D0A04F041FEB0EE408A2EEE6B
:101600000E0A0CEEAC0A0CEE0C0A04F037FEF0EEFB
:10161000400A01B0B0EE480ABDEC108B2846BDE888
:101620003040FFF743B800000000002077CC2B3299
:10163000BD3786359A99993E0AE81C4172B6FEE795
:1016400090F83510022903D08021416501207047B0
:10165000052180F835100068016821F00101016062
:101660000020704790F83500704700002DE9F843DE
:1016700004464FF00009CDF8009063484FF416512E
:10168000A56D0068B0FBF1F72E6894F85C10082097
:1016900000FA01F131420FD021680A6852070BD5D8
:1016A0000A6822F004020A6094F85C108840A8607E
:1016B000606D40F00100606594F85C104FF0010827
:1016C00008FA01F0304208D021684969090604D5BA
:1016D000A860606D40F00200606594F85C10042022
:1016E0008840304208D021680968890704D5A8607D
:1016F000606D40F00400606594F85C101020884034
:10170000304218D021680968090714D5A8602068FC
:101710000168490304D50068000308D5A16C07E0FF
:101720000168C90503D4016821F008010160216C3A
:1017300009B12046884794F85C1020208840304248
:1017400031D021680968C9062DD5A86094F8350004
:1017500005282068016806D0490347D500680003C2
:101760001DD4616C1CE021F0160101602068416904
:1017700021F080014161206C08B9A06C20B1206883
:10178000016821F00801016094F85C103F20884056
:10179000A86084F8358084F83490216D1FE0E16BF7
:1017A00009B120468847606D00282BD0606DC007C6
:1017B00014D0052084F835002068016821F001016B
:1017C00001600098401C0090B84203D8206800686F
:1017D000C007F6D184F8358084F83490E16C002994
:1017E00010D001B02046BDE8F04308470168C905A4
:1017F000D5D4016821F01001016084F8358084F8A7
:101800003490CCE7BDE8F883700000202DE9F0416A
:10181000044600F0ADF906465CB1022084F83500BC
:10182000002584F834502068016821F0010101602E
:101830000DE00120BDE8F08100F09AF9801B052839
:1018400005D920206065032084F83500F2E7206880
:101850000068C007F0D12268116820480140D4E92F
:1018600001031843D4E9033633431843636918432B
:10187000A3691843E3691843236A18430843616A5C
:10188000042903D1D4E90B131943084310602068DD
:101890004069666A20F0070130460E43012704289C
:1018A0000CD1A06A0643E06A40B12046FEF718FE5C
:1018B00020B14020606584F83570BAE72068466141
:1018C0002046FEF7F9FD94F85C203F2191408160AD
:1018D000656584F835700020ACE700003F8010F0AB
:1018E0002DE9F0410446866D90F83400002501286A
:1018F0000DD0012084F8340094F835700020012FB9
:1019000007D084F8340002252846BDE8F081022083
:10191000FBE7022784F8357060652046FEF70AFE73
:1019200094F85C103F208840B0602068016841F066
:1019300016010160206C20B12068016841F00801A7
:1019400001602068016841F001010160DCE70000EE
:1019500070B5044600F00CF90546601C02D004483E
:101960000078044400F004F9401BA042FAD370BD93
:10197000640000202DE9F84FDFF8BCA1002201250A
:1019800003264FF00F090AF1040BAAF1040E00BF61
:101990000B6805FA02F42340A34270D10F7907F0D7
:1019A0000307012F01D0022F16D187684FEA4208A2
:1019B00006FA08FC27EA0C07D1F80CC00CFA08FC60
:1019C0004CEA070CC0F808C04768A7430C79C4F379
:1019D000001494403C4344600C79E443A4070AD0CB
:1019E000C4684FEA420C06FA0CF7BC438F6807FA4A
:1019F0000CF72743C7600C7904F00304022C12D1C2
:101A0000D40800EB840CDCF820405707FF0E09FADD
:101A100007F824EA0804D1F8108008FA07F848EA21
:101A20000408CCF8208004684FEA420C06FA0CF750
:101A3000BC430F7907F0030707FA0CF72743076049
:101A40004C6814F4403F70D03C4C276847F4804702
:101A50002760246822F0030704F480440094384C83
:101A600007EB040CDCF8084897074FEA177809FAE7
:101A700008F7BC43334FB84202D1002724E054E0BA
:101A8000314FB84201D101271EE0304FB84201D199
:101A9000022719E02E4FB84201D1032714E02D4F41
:101AA000B84201D104270FE02B4FB84201D10527DE
:101AB0000AE02A4FB84201D1062705E0284FB84274
:101AC00001D1072700E0082707FA08F72743CCF8D9
:101AD0000878DAF800405746D1F804C09C435FEA22
:101AE000CC2C00D51C433C60DBF800405F46D1F8AD
:101AF00004C09C435FEA8C2C00D51C433C60DEF89C
:101B000000407746D1F804C09C435FEA8C3C00D586
:101B10001C433C60084F083F3C68D1F804C09C431C
:101B20005FEACC3C00D51C433C60521C102AFFF4F9
:101B30002FAFBDE8F88F0000083C01404438024058
:101B40000030014000000240000402400008024052
:101B5000000C024000100240001402400018024035
:101B6000001C02400AB1816170470904FBE70000D4
:101B7000014880687047000064000020704770478B
:101B80002DE9F041016804464A694E6890F83E002C
:101B90000025D743FA0506D4F243D20503D46FF4E7
:101BA000807201254A61B90508D4F143C90505D4FD
:101BB00022686FF4007145F002055161790525D462
:101BC000F143C90522D4638D94F83D10226B20287F
:101BD00008D13BB9212910D029290ED0282901D1BB
:101BE000212A0AD022686FF48061516145F0040512
:101BF000102806D0402804D008E0204602F0CEF895
:101C000004E02068016841F400710160380508D4DF
:101C1000F043C00505D421686FF4006045F0080565
:101C20004861002D07D0206C284320642046BDE881
:101C3000F04101F04FBCBDE8F0812DE9F0470268AA
:101C400000215368C66A90F83E4090F83D50102C31
:101C500012D0402C10D0046C002C7DD05469E44389
:101C6000A6077AD4DE43B60577D4036C03B1916935
:101C7000BDE8F04702F06EB8976951694FF42A0C3D
:101C8000C9435FEAC1784FF02A4904D066452AD09B
:101C90004E4528D010E0DE43B6050DD4C16A61453B
:101CA00001D1012103E0C16A494501D10821C16286
:101CB000BDE8F04701F0E2BE0E0716D4DE43B605DC
:101CC00013D4416CC9B21161416B09B1C96B29B917
:101CD000816B002907D0C96B002904D000684168D6
:101CE00041F400614160BDE8F0878E0706D4DE4311
:101CF000B60503D4BDE8F04701F034BEFE43526898
:101D000076074FEA02521DD4002AECDB0A0608D4FB
:101D1000DA43520505D4490705D5BDE8F04701F07F
:101D2000C5BD4907DFD4D9438905DCD4212D05D0B1
:101D3000402CD8D1BDE8F04701F0E6BEBDE8F04741
:101D400001F072BD002ACEDB4A060BD4DA435205FD
:101D500008D4490708D501E00DE00EE0BDE8F047E2
:101D600001F0E8BC4907BED4D9438905BBD4BDE81E
:101D7000F04701F072BC916970E7E10606D4D943DF
:101D8000890503D4BDE8F04702F050B82821212D81
:101D900027D0292D25D0650655D4DD436D0552D4B5
:101DA000640752D590F83D30448D002C9BD01269C9
:101DB000446A2270426A521C4262428D521E42851F
:101DC000428D002A8FD12A2B8DD10268536823F4CB
:101DD000806353602222026380F83D1000F0EEFA27
:101DE00081E7250623D4DD436D0520D4640720D583
:101DF00090F83D30448D002CF2D0446A2478146170
:101E0000426A521C4262428D521E4285428D002A15
:101E1000E6D1292BE4D10268536823F48063536030
:101E20002122026380F83D1000F0C9FA5BE76107E8
:101E3000D6D4D9438905D3D4418D0029D0D0416A65
:101E4000097811610AE06107CAD4D9438905C7D46A
:101E5000418D0029C4D01169426A1170416A491C40
:101E60004162418D491E41853DE7704770B50400D0
:101E700025D094F83D00002520B984F83C50204638
:101E800000F058FA242084F83D002068016821F011
:101E9000010101602068016841F40041016020688F
:101EA000016821F40041016000F0BEFB4D4A616809
:101EB000914201D84C4900E04C49884201D20120AE
:101EC00070BD4B492368B0FBF1F15E6826F03F0618
:101ED0000E435E606368934206D94FF4967359438C
:101EE0004FF47A73B1FBF3F12368491C1E6A26F0A4
:101EF0003F06314319626168914210D84900401E83
:101F0000B0FBF1F2521CC2F30B02042A01D20420EE
:101F100022E0B0FBF1F0401CC0F30B001CE0A26813
:101F2000F2B301EBC10303EB0116431EB3FBF6F35F
:101F30005B1C43F480431B0549D092B301EBC10203
:101F400002EB0111401EB0FBF1F0401CC0F30B008E
:101F500040F4804040F400402168CA694CF6FF73A9
:101F60009A431043C861D4E907100143206802680E
:101F700022F0C00211430160D4E90301014320684B
:101F8000826848F2FF339A4311438160D4E9050126
:101F900008432168CA6822F0FF021043C86001E0CC
:101FA0000EE016E02068016841F00101016025643F
:101FB000202084F83D00256384F83E50002070BD49
:101FC00001EB4106431EB3FBF6F35B1CB3E70120B4
:101FD000C2E701EB4101401EB0FBF1F0401CC0F331
:101FE0000B00B7E7A086010080841E0000093D00B9
:101FF00040420F00704770477047704770470000BD
:102000002DE9FF4F83B09A46DDE9118793460446D8
:10201000DDF84090FFF7ACFD054694F83D00202820
:1020200070D11923012274492046009501F0D8FF90
:102030000028F5D194F83C00012863D0012084F8F1
:102040003C0020680168C90703D1016841F0010123
:1020500001602068016821F400610160222084F899
:102060003D00402084F83E0000262664C4F82490F9
:10207000A4F82A80608D20856048E062CDE9007573
:1020800053465A462046049901F092FD002879D122
:10209000208DD0B1012821D00228206824D04169A8
:1020A00080690090208D032866D801282BD05449E0
:1020B00002283B464FF00002009557D08846204644
:1020C00001F08EFF00285DD13AE020684169816906
:1020D0000091016841F4007101607DE020680168B1
:1020E00021F480610160F0E7016821F48061016002
:1020F0002068016841F400610160206841698069DD
:10210000009069E075E02A463946204602F00EF854
:1021100088BB54E02068016841F4007101602068C8
:102120000069616A0870606A401C6062218D491E06
:102130002185618D491E618521680969017042E030
:102140002068016821F48061016020680069616A8B
:102150000870606A401C6062208D401E2085608D82
:10216000401E60853B46002241460095204601F016
:1021700037FF00B9CEE705E02A463946204601F090
:10218000D5FF18B1012007B0BDE8F08F20680069C5
:10219000616A0870606A401C6062208D401E81B2D6
:1021A0002185608D401E608520684269D2435207B8
:1021B00012D4032903D1016821F4806101602068F1
:1021C0000069616A0870606A401C6062208D401E70
:1021D0002085608D401E6085208D00287FF462AFD1
:1021E000202084F83D0084F83E6084F83C600020A4
:1021F000C9E70220C7E70000020010000000FFFF4F
:10220000040001002DE9FF4F83B09A46DDE91197E4
:1022100093460446DDF84080FFF7AAFC054694F893
:102220003D0020287FD119230122404920460095F6
:1022300001F0D6FE002876D194F83C00012872D037
:10224000012084F83C0020680168C90703D10168B7
:1022500041F0010101602068016821F40061016022
:10226000212084F83D00402084F83E0000262664AA
:10227000C4F82480A4F82A90608D20852C48E06260
:10228000CDE9007553465A462046049901F00EFDEB
:1022900070B930E02A463946204601F07FFF58B138
:1022A000206C042804D12068016841F400710160A9
:1022B000012007B0BDE8F08F606A216800780861EE
:1022C000606A401C6062218D491E89B22185628D41
:1022D000521E628522685369DB435B070BD469B1E8
:1022E00000781061606A401C6062208D401E20856D
:1022F000608D401E6085208D0028CBD12A4639464E
:10230000204601F041FE0028CAD154F83D0B016877
:1023100041F400710160202004F81E09E677667719
:102320000020C6E7FFE70220C3E70000020010001C
:102330000000FFFF10B586B0044614216846FEF782
:102340003CF81B492068884230D11A4800210268B5
:1023500042F002020260006800F002000590C02016
:1023600000901220CDE90101032003900420049085
:1023700069461148FFF7FEFA0E481030016841F433
:10238000001101600068002200F400100590114661
:102390001F2000F07DF81F2000F06CF8002211468D
:1023A000202000F075F8202000F064F806B010BD81
:1023B000005400403038024000040240704770472B
:1023C00002488168027811448160704764000020EF
:1023D0000B4810B5016841F400710160016841F4D7
:1023E00080610160016841F480710160032000F0A8
:1023F0006FF80F2000F006F800F024F8002010BD60
:10240000003C024070B50D4D04464FF47A712878B7
:10241000B1FBF0F00A490968B1FBF0F000F09DFE55
:1024200048B9102C07D200222146501E00F030F887
:1024300000206C6070BD012070BD000064000020B1
:10244000700000200A4808B5016841F4804101602D
:10245000006800F4804000900548001F016841F0CA
:1024600080510160006800F08050009008BD0000BD
:1024700044380240002809DB00F01F02012191408E
:102480004009800000F1E020C0F800117047000012
:10249000F0B40E4B1B680C46C3F30223C3F10705CF
:1024A000042D00D90425191D072901D2002300E0BD
:1024B000DB1E012606FA05F1491E214099409E4087
:1024C000761E16403143F0BC02F0B6BF0CED00E0C2
:1024D000064900F0070208684FF6FF03184040EA7B
:1024E0000220034A10430860704700000CED00E032
:1024F0000000FA052DE9F0470E46050065D0DFF82B
:102500001481D8F80000F7B200F00700B04207D2FB
:1025100088F80070D8F8000000F00700B04254D1ED
:1025200028683D4C810712D5400703D5206840F448
:10253000E05020602878000703D5206840F4604010
:1025400020602068A96820F0F00008432060287807
:10255000C0072DD0304968680839012812D00228F8
:1025600013D0032811D00968890700292DDA2168C2
:1025700021F0030101432160FFF7FAFA814641F29D
:10258000883A0EE009688903EFE709688901ECE7FA
:10259000FFF7EEFAA0EB0901514502D90320BDE88F
:1025A000F0872068696800F00C00B0EB810FEFD174
:1025B000D8F80010404601F00701B14207D9077072
:1025C000006800F00700B04201D00120E7E728785A
:1025D000400705D52068E96820F4E05008432060F2
:1025E0002878000706D52068296920F4604040EA71
:1025F000C100206000F028F82168084AC1F30311E7
:10260000515CC8400649086006480068FFF7FAFEBA
:102610000020C4E7003C024008380240A46A0008D9
:10262000700000206800002004480549006809681F
:10263000044AC1F38221515CC840704770000020F9
:1026400008380240B46A0008154810B5006810F058
:102650000C02144813D01449042A0FD0082A0ED1B2
:102660000F4C241F2268236802F03F025B0207D54B
:102670002068C0F38810A0FB010106E0084610BDE9
:102680002168C1F38811A1FB00010023FDF7ECFDD7
:102690002168C1F30141491C4900B0FBF1F010BDB4
:1026A000083802400024F40040787D012DE9F84FFD
:1026B00004006ED02078DFF84C93C007A9F1040520
:1026C0004AD009F104000168C1F38101012908D051
:1026D0000068C0F3810002280AD1D9F80000400246
:1026E00006D52868800337D560680028E1D033E03C
:1026F0006068B0F5803F10D0B0F5A02F286810D0EA
:1027000020F480302860286820F4802028606068E9
:10271000A8B1FFF72DFA06460DE0286840F4803096
:10272000F4E740F480202860F7E700BFFFF720FAC5
:10273000801B642873D828688003F7D50CE0FFF766
:1027400017FA064605E000BFFFF712FA801B64285F
:10275000F0D828688003F7D42078DFF8AC828007AF
:102760004FF0000A3ED5A748001D016811F00C0F7C
:1027700008D00068C0F3810002280BD1D9F800000E
:10278000400207D42868800716D5E068012800D1E8
:1027900012E033E1E068B8B10120C8F80000FFF7AB
:1027A000E7F9064605E000BFFFF7E2F9801B0228C3
:1027B000C0D828688007F7D52868216920F0F8007C
:1027C00040EAC10028600DE0C8F800A0FFF7D0F98A
:1027D000064604E0FFF7CCF9801B02281FD82868C2
:1027E0008007F7D42078000722D5864F8748616993
:1027F000703771B101210160FFF7BAF9064604E0B4
:10280000FFF7B6F9801B022809D838688007F7D58A
:102810000EE0C0F800A0FFF7ABF9064605E082E045
:10282000FFF7A6F9801B02287DD838688007F7D407
:102830002078400768D5DFF8CCB100270BF13C0BBE
:10284000DBF80000C0000BD4DBF8001041F0805131
:10285000CBF80010DBF80000012700F0805000905A
:102860006B4E3068C00510D4306840F48070306022
:10287000FFF77EF9009005E0FFF77AF90099401A1A
:10288000022850D83068C005F6D55E4EA0686C3678
:1028900001280FD00528306810D020F001003060EA
:1028A000306820F004003060A068B8B1FFF760F92C
:1028B00000900FE0306840F00100F4E740F00400C1
:1028C0003060F7E7FFF754F90099411A41F2883078
:1028D000814266D830688007F4D50EE0FFF748F9EA
:1028E000009007E0FFF744F90099411A41F288305F
:1028F000814256D830688007F4D42FB1DBF800103D
:1029000021F08051CBF80010A069C8B33D49091DE2
:102910000968C1F3810102294AD00228504607D034
:10292000C8F8600000E03CE0FFF722F904463BE015
:102930004746C8F86000FFF71BF9064605E000BFF0
:10294000FFF716F9801B02282BD828688001F7D4DE
:10295000D4E907010843A16A2E4A490802EB014164
:10296000626A41EA8211084394F82C1040EA01613E
:10297000C9F8001001203866FFF7FAF8044606E0AF
:102980003EE000BFFFF7F4F8001B022809D82868D2
:102990008001F7D534E000BFFFF7EAF8001B0228FA
:1029A00002D90320BDE8F88F28688001F4D427E01D
:1029B0000128F7D0D9F80000E26900F480019142C3
:1029C0001CD1226A00F03F01914217D147F6C07135
:1029D000626A0140B1EB821F10D1A26A4FF0FF334F
:1029E00000F4403103EB5202B1EB024F06D194F8F0
:1029F0002C1000F07060B0EB016F01D00120D1E726
:102A00000020CFE70438024000004742800E4742D2
:102A1000007000400000FFFF7047000038B50168FB
:102A200004464A688868C043430606D5C30704D1F4
:102A3000D3435B0601D4216C05E0830708D4D3435C
:102A40001B0605D4616C01B02046BDE83040084744
:102A5000830603D5430601D5C30551D4D3439B0652
:102A60004ED443060AD494F85130032B49D0636DF9
:102A700043F004036365CB688B680093830609D435
:102A8000636D43F0010363658B6800930B6823F06B
:102A900040030B60C00506D4606D40F0080060651F
:102AA000206880680090606D002829D02068416807
:102AB00021F0E0014160012084F85100900701D429
:102AC000D00722D02068416821F003014160114DF8
:102AD000E06C40B10565E06CFEF7B2FD18B1606DC9
:102AE00040F040006065A06C002809D00565A06C2E
:102AF000FEF7A6FD002803D0606D40F04000606541
:102B000038BDC8688868009038BD2046FFF784FF4C
:102B100038BD00008D4F000870B5040009D0606A10
:102B2000002540B125616561A56294F8510040B16E
:102B30000CE0012070BD6068B0F5827FF4D0E561E3
:102B4000F2E784F85050204600F044F8022084F860
:102B500051002068016821F040010160A0882189AE
:102B600000F4827001F404410843A18901F400617A
:102B70000843217C01F002010843217D01F001019D
:102B80000843218B01F400710843217F01F03801D3
:102B9000084394F8201001F080010843218D01F4CE
:102BA0000051084321680860A069042101EA10402F
:102BB00094F8241001F0100108432168486020684F
:102BC000C16921F40061C1616565012084F851008B
:102BD000002070BD2DE9F04387B0064614216846F9
:102BE000FDF7EBFB2F493068884258D12E4800246E
:102BF000016841F480510160006800F48050059044
:102C000029481438016841F00101016000686946F3
:102C100000F001000590E02000900220CDE90104C1
:102C200003200390052004902048FEF7A3FE214DC9
:102C30001F484FF0C0672860C5E901744FF48068F1
:102C4000C5E903486C614FF40039AC61C5E9074937
:102C500028466C62FEF7DAFD08B1FEF7EFFCF5647A
:102C6000AE631348144D4830E5E802074020A5E85C
:102C70001101114845F81449AC61C5E907496C6276
:102C8000FEF7C4FD08B1FEF7D9FCB5640022114679
:102C90002320AE63FFF7FCFB2320FFF7EBFB07B01D
:102CA000BDE8F0830030014044380240000002409B
:102CB00010640240B00A0020100B002070477047DB
:102CC0002DE9F84F984616468A460446FEF750FF0F
:102CD000814694F8510001281ED1BAF1000F73D03B
:102CE000002E71D094F85000012815D0012784F8E7
:102CF0005070032084F8510000256565C4F830A0A9
:102D0000A686E686A563A587E58765642564A06831
:102D1000B0F5004F03D00CE00220BDE8F88F20682A
:102D2000016821F0400101602068016841F48041A0
:102D3000016020680168490603D4016841F0400140
:102D40000160E068B0F5006F606803D048B3012E01
:102D500027D047E008B1012E1FD1206B21680088E1
:102D6000C86006E020688168890709D5216B098859
:102D7000C160206B801C2063E08E401EE0860CE06A
:102D8000FEF7F6FEA0EB0901414503D3B8F1FF3F82
:102D900003D035E0B8F1000F32D0E08E0028E1D149
:102DA00023E0206B21680078087306E020688168C2
:102DB00089070AD5216B09780173206B401C2063B9
:102DC000E08E401EE0860DE02BE0FEF7D1FEA0EB8A
:102DD0000901414503D3B8F1FF3F03D010E0B8F13A
:102DE000000F0DD0E08E0028E0D14A464146204633
:102DF00002F080F908B120206065A06830B109E0D8
:102E000084F8517084F85050032086E72068C16828
:102E10008068009084F8517004F8505F6068002862
:102E2000F3D0012079E72DE9FF4F81B01D4693468D
:102E300004464FF001090E9EFEF79AFE074694F8ED
:102E400051006168012806D0B1F5827F3CD1A168AC
:102E5000C9BB042838D10298002871D0BBF1000FFB
:102E6000FBD0002DF9D094F8500001282CD04FF061
:102E7000010A84F850A094F85100042802D00520DB
:102E800084F851004FF00008C4F85480C4F838B0FA
:102E9000E587A58702992163E586A586C4F8408069
:102EA000C4F8448020680168490603D4016841F0F1
:102EB00040010160E068B0F5006F606808D0F0B3D1
:102EC000012D49D081E0FFE7022005B0BDE8F08F79
:102ED00008B1012D39D1206B21680088C860206BB2
:102EE000801C2063E08E401EE0862EE02068816812
:102EF00089070FD5E18E69B1B9F1010F0AD1216BB4
:102F00000988C160206B801C2063E08E401EE08633
:102F10004FF0000920688168C9070CD0E18F51B1DA
:102F2000C068A16B0880A06B801CA063E08F401E6E
:102F3000E0874FF00109FEF71BFEC01B01E00BE02C
:102F400067E0B04201D3701C50D1E08E0028CDD193
:102F5000E08F0028CAD13EE0206B2168007808731A
:102F6000206B401C2063E08E401EE0862DE0206830
:102F7000816889070FD5E18E69B1B9F1010F0AD1D6
:102F8000216B09780173206B401C2063E08E401E8A
:102F9000E0864FF0000920688168C9070CD0E18FF6
:102FA00051B1C068A16B0870A06B401CA063E08F9A
:102FB000401EE0874FF00109FEF7DAFDC01BB0426A
:102FC00002D3701C01D011E086B1E08E0028CED172
:102FD000E08F0028CBD13A463146204602F08AF8ED
:102FE00050B12020606584F8508012E084F851A030
:102FF00084F85080032068E7A06818B92068C16889
:103000008068009084F851A084F85080606D00289A
:10301000F1D0012059E7000070B5044690F8510046
:103020006568012806D0B5F5827F3AD1A568A5BBB1
:10303000042836D191B38AB383B394F850000128A1
:103040002FD0012084F8500094F85100042802D0B9
:10305000052084F85100002565652163A386E38679
:10306000A263A387E3872564656494F8510004286C
:1030700019D0E16C274808642748E16CC863E16C0B
:103080002648C864E06C0565E38F2168A26B0C31AB
:10309000E06CFEF725FC00BB0AE002E0FFE7012040
:1030A00070BD022070BDE16C1D4808641D48E4E756
:1030B0002068416841F001014160A06C0564A06C8A
:1030C000C563A06CC564A06C0565E38E2268216BA6
:1030D0000C32A06CFEF704FC30B1606D40F01000C3
:1030E000606584F85050DAE720680168490603D427
:1030F000016841F04001016084F850502068416847
:1031000041F0200141602068416841F002014160C6
:10311000002070BDC94F00083D5000089D4F0008B9
:10312000BF4F0008D34F000810B500680749884218
:103130000BD1012210210648FEF714FD054801F0CD
:10314000BDF90449012081F85A0010BD003001404A
:103150000000024068010020704710B5401EB0F129
:10316000807F01D3012010BD4FF0E02460610F216A
:10317000601702F061F90020A061072020610020A3
:1031800010BD000070B590F83C20012A32D0012417
:1031900080F83C40022280F83D2003685A689D6810
:1031A00022F070060A6832435A60134B02689A4252
:1031B00014D0B2F1804F11D0104B9A420ED0104B68
:1031C0009A420BD00F4B9A4208D00F4B9A4205D02F
:1031D0000E4B9A4202D00E4B9A4204D1496825F018
:1031E00080031943916080F83D40002180F83C1035
:1031F000084670BD022070BD000001400004004080
:1032000000080040000C0040000401400040014064
:103210000018004010B5040003D094F83D0010B130
:1032200007E0012010BD002084F83C00204600F09B
:103230001FF8022084F83D00211D206802F044F8A8
:10324000012084F8460084F83E0084F83F0084F8AA
:10325000400084F8410084F8420084F8430084F878
:10326000440084F8450084F83D00002010BD0000B3
:1032700008B500680649884208D10648016841F04F
:1032800008010160006800F00800009008BD00001F
:10329000000C00404038024090F83D10012901D058
:1032A00001207047022180F83D10006811498842D2
:1032B00014D0B0F1804F11D00F4988420ED00F4981
:1032C00088420BD00E49884208D00E49884205D06A
:1032D0000D49884202D00D49884204D1816801F02D
:1032E0000701062903D0016841F0010101600020B7
:1032F000704700000000014000040040000800404A
:10330000000C004000040140004001400018004053
:1033100070B5044690F83C000025012817D001261E
:1033200084F83C60022084F83D002068826822F026
:10333000770222F47F4282600868502838D00DDC82
:1033400020284FD005DC90B3102811D14AE002208C
:1033500070BD302846D040280AD13BE060282FD0ED
:1033600070280DD0B0F5805F03D0B0F5005F12D0AB
:10337000012584F83D60002084F83C00284670BD9B
:10338000CB68D1E90121206802F006F82068816845
:1033900041F0770109E0CB68D1E90121206801F013
:1033A000FBFF2068816841F480418160E1E719E01A
:1033B000CA684968206802F001F85021206806E0D8
:1033C000CA684968206802F00AF86021206801F0A4
:1033D000EDFFCEE7CA684968206801F0EFFF4021A1
:1033E0002068F4E7226801461046F0E7FEE7000097
:1033F0000148FEF7C5BB0000740000200148FEF73D
:103400001CBC00007400002038B5806B002190F8CF
:103410003D202B4B46F2A8141B68B3FBF4F3C3EB1F
:10342000C30303EB830300933BB15B1E009303686C
:103430001B689B0505D5009BF6E7036C43F0200352
:103440000364436B03B1D963836B03B1D96303682E
:103450001C6824F480641C604185436B03B11965CA
:10346000836B03B1196503681C6824F001041C60B8
:1034700090F83D402023602C0BD0282434EA02022F
:103480000FD080F83D3080F83E1000BFFEF7EDFC15
:1034900038BD80F83D3080F83E100164FEF76EFBC9
:1034A00038BD0268136843F00103136002681368B3
:1034B00043F480631360016380F83D40E6E7000059
:1034C0007000002000684169C943090601D4002149
:1034D0000161704770B5044690F83D0094F83E10C5
:1034E000102901D0402906D1222804D121680A6878
:1034F00022F400620A60282131EA00024FF0000540
:103500004FF0200626D021684968090505D46028B7
:1035100003D084F83D6084F83E50256320684168FC
:10352000090537D5416821F400614160606B90F86E
:1035300035203C49012A11D00165606BFEF780F807
:1035400038B32068016821F00101016084F83D6012
:10355000606B1CE0256384F83D10DFE7A06B01651C
:10356000A06BFEF76DF8A0B120684169C943490618
:1035700005D40069616A0870606A401C6062206856
:10358000016821F00101016084F83D60A06B016DCC
:10359000884710E094F83D10602910D04169C94374
:1035A000490605D40069616A0870606A401C60625F
:1035B0002046FEF75AFC206CC1071CD115E084F8A8
:1035C0003D6025644169C943490605D40069616AC3
:1035D0000870606A401C60622068016821F0010187
:1035E00001602046FEF7CAFAE5E7810703D44107E8
:1035F00001D4000704D52068416821F4E0614160EE
:1036000094F83D00216C49070BD5282809D10648BC
:10361000E062256384F83D6084F83E502046FEF762
:10362000E9FC70BD093400080000FFFF01684A6929
:10363000D24352050FD46FF480624A61002140F8F2
:10364000301F202242738173026942F0040202613A
:103650000173012070470020704710B5C26A438D86
:103660000168042B06D0438D032B08D0438D022B19
:103670001DD012E04A6822F480624A600CE04B6878
:1036800023F480634B60042A06D0022A04D0016828
:103690000A6822F480620A6001680969426A11704E
:1036A000416A491C4162418D491E418510BD012A74
:1036B00034D0102A32D0042A34D0022A32D00B68F7
:1036C00043F400730B6001680969436A1970416A29
:1036D000491C4162438D5B1E438503681B690B7067
:1036E000416A491C4162418D491E418501684B6810
:1036F00023F440734B60202180F83D1090F83E3059
:103700000021402B80F83E1010D0082A02D0202A39
:1037100000D012210163FEF76EFC10BD0B6823F48C
:103720008063CFE70B6843F48063CBE70163FEF768
:1037300064FC10BD38B590F83D10222910D1C36A41
:10374000418D03290DD901680969426A1170416AE6
:10375000491C4162418D491E4185418D032906D096
:1037600038BDC26A022A02D0012906D029B10068F8
:10377000416821F48061416038BD2A4A46F2A814AC
:1037800000211268B2FBF4F202EB8202009202689E
:103790002024009D6D1E009526D01568AD05F8D437
:1037A000156825F4806515600268556825F4E065A4
:1037B000556002681269456A2A70426A521C426268
:1037C000428D521E428580F83D4090F83E2080F8A0
:1037D0003E10402A21D0082B02D0202B00D01221ED
:1037E0000163FEF708FC38BD036C43F0200303645B
:1037F000536823F4E063536002681269436A1A70E5
:10380000426A521C4262428D521E428580F83D40FF
:1038100080F83E10FEF729FB38BD0163FEF7EDFB93
:1038200038BD00007000002010B5C26A90F83D104D
:1038300021290BD1418D51B1416A0268097811618A
:10384000416A491C4162418D491E418510BD2023BA
:103850000021082A13D0202A11D012F5803F0ED063
:103860000268546824F4E06454601122026380F812
:103870003E1080F83D3000BFFEF7BEFB10BD026871
:10388000546824F4E06454600268146844F40074DA
:103890001460016380F83D3090F83E2080F83E10BF
:1038A000402AE9D1FEF7AAFB10BD000010B590F840
:1038B0003D1090F83E30C26A048DB4B1212903D086
:1038C000402B11D122290FD1418DE1B390F83E1048
:1038D000402942D0416A026809781161416A491C55
:1038E0004162418D491E418510BD2129E8D1202327
:1038F0000021082A13D0202A11D012F5803F0ED0C3
:103900000268546824F4E06454601122026380F871
:103910003E1080F83D3000BFFEF76EFB10BD026820
:10392000546824F4E06454600268146844F4007439
:103930001460016380F83D3090F83E2080F83E101E
:10394000402AE9D100E002E0FEF758FB10BD006814
:10395000416821F48061416010BDBDE8104000F075
:10396000D3B8000078B590F83E50C26A036B90F867
:103970003D6000240168222E7AD1066D0EB9402DDB
:1039800076D0056D1DB90569B5F5404F09D0458D57
:1039900005B3468D384D012E0ED0438D022B3AD003
:1039A0005DE04A698A6900920A6842F480720A609E
:1039B000016D491C016578BDAA4213D10A6822F441
:1039C00080620A6001684A68120503D50A6822F419
:1039D000806216E04A698A6900920A6842F40072BD
:1039E0000A6039E0082A10D0202A0ED0122B0AD003
:1039F000042A03D0022A01D0102AE7D10A6842F42F
:103A000080620A6024E0012AE0D00A6822F4806221
:103A10000A600168DEE7042A21D0022A1FD0102A9A
:103A20001DD00B6823F480630B6001680B6843F4BE
:103A300000630B6001684B681B0509D5AA4212D0D0
:103A4000012A10D0082A0ED0102A0CD0202A0AD021
:103A500001684A6989690091046578BD08E00B68CE
:103A600043F48063E5E74A6842F480524A60EFE736
:103A7000486988690090F0E70000FFFF90F83E1069
:103A8000402910D00169B1F5804F19D0016DA9B35B
:103A9000016D012910D1416C5FF0F10201F4407118
:103AA00042EAD11106E0016D0029416C05D0C9B28E
:103AB00041F0010100680161704701F0FE01F9E782
:103AC00090F83D102129416C09D0C9B241F00101A3
:103AD00002681161416B29B1C96B49B902E001F07B
:103AE000FE01F5E7816B0029E6D0C96B0029E3D020
:103AF0000068416841F4006141607047FFE7416C34
:103B0000F02201F44071CBE710B590F83D10026D42
:103B10004AB1026D012A14D0026D022A16D0BDE806
:103B20001040FFF7CFBCC16C0129816C02D0C1F3FA
:103B3000072108E00268C9B21161016D891C0165A5
:103B400010BD816CC9B20268116123E022291CD02A
:103B5000428D0AB1212920D0428D002AF0D121299D
:103B6000EED101684A6822F4E0624A6001680A689E
:103B700042F400720A6000210163202280F83D2097
:103B800080F83E10FEF73AFA10BD01680A6842F468
:103B900080720A60016D491CD1E7416A02680978A8
:103BA0001161416A491C4162418D491E418510BD28
:103BB0002DE9F84F0446006889460B9D0168984638
:103BC000174641F4806101602068016841F480710A
:103BD000016000954FF0011B0022594620460A9BC8
:103BE00000F0FEF94FF4007A40B120680068C0058B
:103BF00001D5C4F840A00320BDE8F88F216809F082
:103C0000FE0008612B46284920460A9A00F030FA47
:103C1000F0BB20684169806900902A4620460A99D5
:103C200000F0BCFA40B1206C04283AD12068016849
:103C300041F40071016034E0FEB2B8F1010F09D027
:103C40002168380A08612A4620460A9900F0A6FA37
:103C50000028E8D1206806612A4620460A9900F02B
:103C60009DFA0028DFD12068016841F4807101606D
:103C700000950022594620460A9B00F0B1F9002821
:103C8000B3D1216809F0FF0040F00100086100E0B5
:103C900007E02B46044920460A9A00F0E9F900287B
:103CA000AAD00120A8E70000020001002DE9F84396
:103CB000044600680D46DDE90897016898461646F7
:103CC00041F4807101604B4600224FF00111204603
:103CD000009700F085F948B120680068C00502D55A
:103CE0004FF4007020640320BDE8F883216805F0DC
:103CF000FE0008613B464A461549204600F0B8F9E7
:103D000088B920684169806900903A464946204652
:103D100000F044FA48B1206C042804D120680168FE
:103D200041F4007101600120DEE7F5B2B8F1010F46
:103D300009D02168300A08613A464946204600F019
:103D40002DFA0028E7D1206805610020CCE70000AB
:103D50000200010038B50C4690F83D2000212825CE
:103D6000954302680B4605D051699169009180F82E
:103D70003C3038BD556825F480655560E2435407F2
:103D800000D50121120601D5828900E0028B80F85E
:103D90003C3092B2FDF7F3FE38BD00002DE9F04152
:103DA00090F83D300446C26A002120261E4F00686C
:103DB0006FF48065082A01D0202A01D1282B04D075
:103DC000212B17D04561BDE8F081E762426822F4FB
:103DD000E0624260206845612068026822F48062E7
:103DE0000260216384F83D6084F83E102046FEF7AF
:103DF00001F9E8E7E7622122226384F83D6084F854
:103E00003E10416821F4E06141602068456120680E
:103E1000016821F4806101602046FFF753FB2046D2
:103E2000FEF7CDFACFE700000000FFFFF8B590F8ED
:103E30003D6004460068416821F4E061416020680B
:103E4000002541690091016841F00101016020688D
:103E5000016821F48061016020684168090520D56E
:103E6000474F222E48D02A2E46D0616B09684968F8
:103E70006185618D19B1216C41F0040121644168B3
:103E800021F400614160606BFDF7ECFB012808D074
:103E9000606B0765606BFDF7D3FB10B1606B016D64
:103EA0008847608D08B320684169C943490708D431
:103EB0000069616A0870606A401C6062608D401E23
:103EC000608520684169C943490608D40069616A70
:103ED0000870606A401C6062608D401E6085608D65
:103EE00018B1206C40F004002064206C00B3204620
:103EF000BDE8F840FFF7EEBAA16B09684968618533
:103F0000618D19B1216C41F004012164416821F4F3
:103F100000614160A06BFDF7A5FB0128C1D0A06B3B
:103F20000765A06BFDF78CFB0028BAD0A06BB6E745
:103F30002A2E06D12563282084F83D002046FEF76E
:103F40003DFA94F83D10202028290DD0216B22291C
:103F500001D0222E07D1256384F83D0084F83E501D
:103F60002046FEF72BFAF8BD0649E162256384F886
:103F70003D0084F83E502046FEF73CF8F8BD0000B6
:103F8000093400080000FFFF70B516460D460446D0
:103F90001EE02046FFF74AFB08B1012070BD681CF7
:103FA00016D0FDF7E5FD801BA84200D885B9206832
:103FB0004069C04340070BD5002044F8300F202152
:103FC0006173A073216941F0200121612073E4E74E
:103FD00020684069C0434007DBD4002070BD00006A
:103FE0002DE9F047984617460D460446C1F30746AB
:103FF000DDF820902AE000BFB8F1FF3F26D0FDF7A2
:10400000B7FDA0EB0901414502D8B8F1000F1DD161
:104010002068012E16D0806925EA00000004000CFB
:1040200012D00020B84211D1002044F8300F2021D6
:104030006173A073216941F0200121612073012087
:10404000BDE8F0874069E7E70120EBE72068012E33
:104050000AD0806925EA00000004000C06D0002088
:10406000B842C9D00020EBE74069F3E70120F7E749
:104070002DE9F047984616460D4604464FF00009D4
:104080004FF0200AC1F3074723E020684069C0438E
:10409000400515D42068016841F400710160216871
:1040A0006FF480604861C4F8309084F83DA084F8D3
:1040B0003E90216C41F00401216484F83C9021E0A1
:1040C000701C06D0FDF754FDA0EB0800B04203D8E9
:1040D00016B1012F1FD021E02068012F15D0806973
:1040E00025EA00000004000C18D000BF44F8309FFF
:1040F00084F80DA084F80E90216941F0200121611F
:1041000084F80C900120BDE8F087406925EA0000A2
:104110000004000CEAD12068406901E02068806951
:1041200025EA00000004000CAFD1ECE72DE9F041D6
:10413000002590460E460446202728E04069C043EB
:10414000C0060CD454F8301B6FF01000486144F8DE
:1041500010596777A577206A2062257714E0FDF76C
:1041600007FDA0EB0800B04200D886B9206840697E
:10417000C04340060BD544F8305F6773A5732069D0
:1041800040F02000206125730120BDE8F081206807
:104190004169C9434906D1D40020F6E770B51646F7
:1041A0000D4604461EE02046FFF740FA08B1012004
:1041B00070BD681C16D0FDF7DBFC801BA84200D840
:1041C00085B920684069C04300060BD5002044F83B
:1041D000300F20216173A073216941F0200121611A
:1041E0002073E4E720684069C0430006DBD4002068
:1041F00070BD000070B500242DED028BF0EE408AFA
:104200009FED1C8AB0EE481A1AE000BFF0EE410A9A
:1042100000230CE000EB830595ED000A03FB02454B
:1042200001EB85055B1CD5ED001A40EE210A934297
:10423000F0DB00EB8403641C93ED000A00EE808A3F
:104240009442E3DB18EE100A01F0F0F878B9B5EE0D
:10425000C08AF1EE10FA0AD328EEA80AB4EEC80A12
:10426000F1EE10FA03DD0120BDEC028B70BD0020E1
:10427000FAE700000000000000F12401FCF76FB92C
:1042800010B504462430FCF797F99FED030A84ED3E
:10429000070A84ED080A10BD000000002DE9F04374
:1042A00089B04FF00008CDF80080CDF80480CDF83B
:1042B0000880CDF80C80CDF81080CDF8148004462D
:1042C0004FF47A7980F8588045466E4603AF06A9C8
:1042D000204600F0A1F906A9204600F085F800204C
:1042E00006EB800204EB800192ED000AD1ED010A99
:1042F00030EE200A82ED000A07EB8002D1ED040ABD
:1043000092ED000A401CC0B230EE200A032882ED74
:10431000000AE5D30120FDF71BFB6D1CADB24D4536
:10432000D5D300209FED130A06EB800107EB800236
:10433000D1ED000A04EB8001401C80EE801AC0B26F
:10434000032881ED071AD2ED000A80EE801A81ED74
:104350000A1AE9D394ED090AF7EE000A30EE600A72
:1043600084ED090A84F85980012084F8580009B0C6
:10437000BDE8F08300007A4410B5016004460122D4
:1043800010211848FDF7EEFB6420FDF7E1FA8022CA
:104390006B21204600F090F96420FDF7D9FA012244
:1043A0006B21204600F088F90A20FDF7D1FA1B2185
:1043B000204600F00FF900F0E7021B21204600F034
:1043C0007BF91C21204600F005F900F0E7021C21D2
:1043D000204600F071F92046BDE81040752100F03C
:1043E000F9B8000000000240F0B531F8012FDFED10
:1043F0002D0A52BA17B24A8800EE107A52BA15B294
:104400008A88B8EEC00A52BA16B2CA8820EE200ACC
:1044100052BA14B20A899FED241A52BA13B24A89C9
:10442000898980ED010A00EE105A52BA12B2B8EE34
:10443000C00A49BA09B220EE010A9FED1C1A80EDAC
:10444000020A00EE106AB8EEC00A20EE200A80EDE3
:10445000030A00EE104AF8EEC00A80EE810ADFED92
:10446000140A30EE200ADFED130A80ED0D0A00EE8B
:10447000103AB8EEC00A80EE201A00EE102AB8EE0C
:10448000C00A80ED041A9FED0C1AC0EE011A00EE6E
:10449000101AB8EEC00A80EE201AC0ED051A80EDA1
:1044A000061AF0BD00008038000080B80000AA4362
:1044B000B81E1242000003C300000343F0B5B0F879
:1044C0004910DFED3E0A49BA0EB2B0F84B1000EECB
:1044D000106A49BA0DB2B0F84D10B8EEC00A49BA28
:1044E0000CB2B0F84F1020EE200A49BA0BB2B0F867
:1044F0005110B0F8557049BA0AB2B0F8531080EDB7
:10450000010A00EE105A9FED2E1A49BAB8EEC00A01
:1045100009B27FBA3FB220EE010A9FED2A1A80ED60
:10452000020A00EE104AB8EEC00A20EE200A80ED22
:10453000030A00EE103AB8EEC00AC0EE010A9FED81
:10454000220A30EE800ADFED210A80ED0D0A00EE2E
:10455000102AB8EEC00A80EE201A00EE101AB8EE4B
:10456000C00A80ED041A9FED1A1AC0EE011A00EE7F
:10457000107AB8EEC00A80EE201AC0ED051A80ED60
:10458000061A90F85810002916D0002100EB81027D
:10459000491C92ED010AD2ED070AC9B2032930EE97
:1045A000600A82ED010A92ED040AD2ED0A0A30EEA9
:1045B000600A82ED040AE9D3F0BD000000008038F3
:1045C000000080B80000AA43B81E1242000003C3D6
:1045D000000003433EB504460020019041F08001F5
:1045E0000C4D8DF804100246029010212846FDF76C
:1045F000B9FA4FF0FF300090022302AA01A9206807
:10460000FEF711FC012210212846FDF7ABFA9DF8B8
:1046100009003EBD00000240F8B50446BB2084F806
:1046200038000D460120FF212218401C82F8381066
:104630000F28F9DB0B4E002210213046FDF792FACD
:104640004FF0FF3000900F232A4604F13801206814
:10465000FEF7E9FB3046BDE8F84001221021FDF7E6
:1046600081BA00000000024070B50446BB2084F807
:1046700038000120FF212218401C82F838100F2832
:10468000F9DB0C4D002210212846FDF76BFA0F23B1
:1046900004F1480204F138012068FEF7BDFC00284F
:1046A00006D02846BDE8704001221021FDF75ABA15
:1046B00070BD00000000024038B5044601F07F00E4
:1046C0008DF800000A4D8DF80120002210212846A7
:1046D000FDF748FA4FF0FF33022269462068FEF7E3
:1046E000EFFA012210212846FDF73CFA38BD000000
:1046F0000000024030B587B014216846FBF75DFE2C
:1047000015480024016841F080010160016801F052
:1047100080010591016841F001010160016801F02B
:1047200001010591016841F00201016000680B4D33
:1047300000F002000590002210212846FDF712FA31
:10474000102000900120CDE9010469462846039419
:10475000FDF710F907B030BD3038024000000240CC
:104760000E4810B50C4901604FF482714160002180
:104770008160C1604FF400720161C0E90512C1613E
:104780000162416281620A21C162FEF7C5F9002817
:1047900001D072B6FEE710BD00300140C800002015
:1047A00010B586B000241648009401940294039436
:1047B00004941249059401605321C0E90114611E5B
:1047C000C0E903148461FEF725FD08B172B6FEE767
:1047D0004FF48050009069460948FEF799FD08B1F2
:1047E00072B6FEE7049404A905480594FEF7CAFCD6
:1047F000002801D072B6FEE706B010BD000C0040E4
:104800002001002030B500240FE000BF01EB84053B
:1048100095ED000A02EB8405D5ED000A00EB840556
:10482000641C30EE200A85ED000A9C42EEDB30BDB0
:104830002DE9F0478146DDE90864884603FB04F072
:1048400081001D4617464846FBF7B7FD002024E0CF
:1048500000FB06F108EB81030022DFED120A19E0EC
:10486000B0EE600A00210CE003EB810C9CED001A15
:1048700001FB042C07EB8C0C491CDCED001A01EE4B
:10488000210AB142F0DB00FB042C09EB8C01521C25
:1048900081ED000AA242E3DB401CA842D8DBBDE860
:1048A000F0870000000000002DE9F0478246DDE9B6
:1048B0000856894603FB06F081001C461746504601
:1048C000FBF77BFD002126E001FB05F009EB800CE6
:1048D0000020DFED130A1BE000FB05F207EB82036B
:1048E000B0EE600A00220AE00CEB820898ED001A94
:1048F00003EB8208521CD8ED001A01EE210AAA42ED
:10490000F2DB01FB06030AEB8302401C82ED000A86
:10491000B042E1DB491CA142D6DBBDE8F0870000D4
:104920000000000030B500240FE000BF01EB84055B
:1049300095ED000A02EB8405D5ED000A00EB840535
:10494000641C30EE600A85ED000A9C42EEDB30BD4F
:1049500010B504462DED068B8AB0B0EE448AF0EE19
:10496000638AB0EE439AF0EE629AB0EE42AAF0EE9D
:1049700061AA00F047FD8DEC030AB0EE691AF0EE73
:104980004A0AB0EE6A0A00F03DFD03A880EC030A73
:10499000B0EE481AF0EE680AB0EE490A00F032FDB7
:1049A00006AB24226946204683EC030AFBF7D3FCBE
:1049B0000AB0BDEC068B10BDD0ED041A90ED082AAC
:1049C000D0ED052A90ED071A21EE820AD0ED000AFB
:1049D00002EEC10A20EE200AD0ED060A22EEA03A2D
:1049E000D0ED032A02EEC23A22EE811A90ED012A9E
:1049F00001EEE01A02EE030AD0ED020A00EE810A8F
:104A0000704700B50246FFF7D7FFF0EEC00A10EE80
:104A1000900AB0F1505F01DA002000BDB7EE001A35
:104A2000D2ED051AC1EE000A92ED040A92ED081AC1
:104A3000012020EE010A92ED071A01EE610A20EE34
:104A4000200A81ED000A92ED020A92ED071AD2EDDA
:104A5000081A20EE010A92ED011A01EE610A20EE19
:104A6000200A81ED010A92ED010A92ED051AD2EDBC
:104A7000041A20EE010A92ED021A01EE610A20EEFC
:104A8000200A81ED020A92ED050A92ED061AD2ED96
:104A9000081A20EE010A92ED031A01EE610A20EED7
:104AA000200A81ED030A92ED000A92ED081AD2ED78
:104AB000061A20EE010A92ED021A01EE610A20EEBA
:104AC000200A81ED040A92ED030A92ED021AD2ED5A
:104AD000051A20EE010A92ED001A01EE610A20EE9D
:104AE000200A81ED050A92ED030A92ED071AD2ED34
:104AF000041A20EE010A92ED061A01EE610A20EE78
:104B0000200A81ED060A92ED060A92ED011AD2ED15
:104B1000071A20EE010A92ED001A01EE610A20EE5A
:104B2000200A81ED070A92ED000A92ED041AD2EDF7
:104B3000011A20EE010A92ED031A01EE610A20EE3D
:104B4000200A81ED080A00BDFEE7FEE710B590EDF2
:104B5000000AD0ED010A044620EE000A00EEA00A89
:104B6000D0ED020A00EEA00AD0ED030A00EEA00A82
:104B700001F084FB10EE100A1449B7EE001A8842C7
:104B800018DDC1EE000A94ED000A20EE200A84ED43
:104B9000000A94ED010A20EE200A84ED010A94ED4A
:104BA000020A20EE200A84ED020A94ED030A20EEA8
:104BB000200A07E09FED060A84ED001A84ED010A41
:104BC00084ED020A84ED030A10BD0000BD3786356E
:104BD00000000000017809B1417851B180ED090A67
:104BE00080ED0A0A80ED0C0A80ED0B0A002141706D
:104BF000704790ED091AD0ED020AD0ED011A90ED40
:104C0000032A61EE200AD0ED052A40EE210AD0EDFC
:104C10000A1A41EE820AD0ED0C1A90ED042A41EEF8
:104C2000C20A90ED0B2A80ED0A1A80ED090AC0ED48
:104C30000B1A42EE620AC0ED0C0AB0EE600A704731
:104C400070B50C462DED028BB0EE408A9FED1F0A29
:104C5000F0EE608A0546C1EE000AB2EE040A00F0EA
:104C600013FF85ED000AB6EE000A68EE800AF4EE46
:104C7000C80AF1EE10FA24D2F0EE480A48EEC00A53
:104C800088EE200A00F04EFEB0EE408AB0EE000A38
:104C9000F0EE480A00F0F8FE01F0F0FAF0EE408A7B
:104CA000F0EE480AB0EE000A00F0EEFEF7EE000A61
:104CB00030EE600AC8EE800AC4ED000ABDEC028B3B
:104CC00070BD9FED030A84ED000AF7E7000020C2E3
:104CD0000000000010B5B0EE412A2DED028BF0EE81
:104CE000408AB6EE000AB0EE608A62EE000A044620
:104CF000002082B0F4EEC80A2070F1EE10FA19D24A
:104D000028EE800AB4EEC80AF1EE10FA12DD01A90D
:104D10006846B0EE611AF0EE420AB0EE480AFFF7BC
:104D20008FFF9DEC021AF0EE480AB0EE680A2046AA
:104D300000F004F802B0BDEC028B10BD10B50446C3
:104D40002DED088BF0EE618AB0EE41AAB0EE409AEC
:104D50000078A0B194ED060AB4EE600AF1EE10FA04
:104D60000DD194ED070AB4EE490AF1EE10FA06D11E
:104D700094ED080AB4EE4A0AF1EE10FA77D0B0EEDC
:104D8000608AA0B1607890B994ED060AB5EEC00AC9
:104D9000F1EE10FA0BD0DFED370A70EE600AB4EED8
:104DA000E08AF1EE10FA00D301DDB0EE608AB5EED4
:104DB000C08AF1EE10FA58DDB6EE000A29EE000ABC
:104DC000B4EEC80AF1EE10FA4FDDF5EEC08AF1EE4E
:104DD00010FA4ADD9FED280A28EE000A80EE09BA93
:104DE000B0EE4B0A01F082F9F0EE000A6AEE0AAA70
:104DF00068EEA00AF7EE008AC0EE209AB0EE680ACC
:104E000009EEAA0A84ED010AB0EE4B0A00F0E2FCBA
:104E100039EEA82AF8EE000AB0EE681A20EE200A51
:104E2000C8EE820A94ED012A09EEEA1A78EEE91A30
:104E3000012022EE202A21EE201A84ED012A20EE04
:104E4000202A20EE200A84ED022A84ED031A84ED44
:104E5000040A21EEA00A84ED050A84ED068A84ED99
:104E6000079A84ED08AA01E001E000202070BDEC63
:104E7000088B10BDCDCC4C3DDB0FC9407047F0B561
:104E800085B0016000208DF810000124642504A87D
:104E90008DE831000F4623460D221A213846FDF7D2
:104EA000AFF8002830D19DF81000FF282CD18020C9
:104EB0008DF80C0003AE009601230A221A21384611
:104EC000CDE90145FDF79EF91420FCF741FD8DF871
:104ED0000C40009601230B221A213846CDE90145EA
:104EE000FDF790F90A20FCF733FD19208DF80C002E
:104EF0000096012309221A213846CDE90145FDF724
:104F000081F93220FCF724FD05B0F0BD10B586B064
:104F100004466422062103A88DE80700012300222D
:104F20001A212068FDF76CF810B1002006B010BD02
:104F3000BDF90C10A18000EE101ABDF90E00E08042
:104F4000F8EEC00A9FED0D0ABDF91020228160EE37
:104F5000800AC4ED030A00EE900A0120F8EEE00A90
:104F600060EE800AC4ED040A00EE902AF8EEE00A32
:104F700020EE800A84ED050AD8E70000CCC2AE39E5
:104F80000148FDF74BBD0000C800002010B5806B44
:104F90000021C187C186FDF73FFD10BD10B5806BB4
:104FA00001684A6822F003024A60416D41F0100135
:104FB0004165012180F85110FDF72EFD10BD10B59F
:104FC000806BFDF77CFE10BD10B5806BFEF7C4F85A
:104FD00010BD70B50546846BFCF7CAFD0246286813
:104FE0000068C00526D42068416821F02001416096
:104FF000A06818B96068B0F5827F16D02068416853
:1050000021F0010141606421204600F044F808B11C
:10501000202060650020E087012084F85100606D49
:1050200040B12046FDF7F8FC70BD2068416821F0D2
:105030000301E7E72046FDF741FE70BD70B5054668
:10504000846BFCF795FD024628680068C0051ED4F5
:105050002068416821F0200141606421204600F071
:1050600049F818B1606D40F0200060652068416823
:1050700021F0030141600020E086E087012084F8F0
:105080005100606D18B12046FDF7C6FC70BD20468A
:10509000FEF74AF870BDF8B5044640684FF48273D5
:1050A000984221D1A0684FF48065B0F5004F01D03F
:1050B000A8420AD12068066826F0400606606068AB
:1050C000984211D1A068A8420ED000920B4600224F
:1050D0008021204600F044F8002804D0606D40F0A4
:1050E000200060650320F8BD00920B4600220121DC
:1050F000EFE70000F8B515460E460B460092044651
:105100000122022100F02CF8A0B9134813490068CD
:10511000B0FBF1F04FF47A71484300906068B0F54D
:10512000827F0DD13346002280212046009500F079
:1051300017F870B1606D40F0200060650320F8BD85
:10514000009830B1401E009020688068C04300067F
:10515000F6D50020F8BD00007000002000366E017A
:105160002DE9F8431E46914688460446089DFCF703
:10517000FFFC401B351AFCF7FBFC0746264800687D
:10518000C0F3CB3068430AE0701C09D0FCF7F0FC98
:10519000C01BA8420FD275B10098B8B3401E009052
:1051A0002068816838EA010033D000214945EBD1FD
:1051B0000020BDE8F8832068416821F0E0014160EB
:1051C0006068B0F5827F0BD1A068B0F5004F02D0C7
:1051D000B0F5806F04D12068016821F040010160C2
:1051E000A06AB0F5005F09D12068016821F4005180
:1051F00001602068016841F400510160012084F8D9
:105200005100002084F850000320D2E7FFE700257A
:10521000C6E70121CAE70000700000207047FDF7D3
:10522000CFB8000030B593B030216846FBF7C5F821
:1052300014210CA8FBF7C1F81D480025016841F0B6
:1052400080510160006800F0805011901948016899
:1052500041F4804101600068022400F48040119014
:105260000120039010200490009406940820CDE9BA
:105270000750A820CDE9090404200B906846FDF7EB
:1052800015FA08B172B6FEE70CA90F2081E83100CB
:105290004FF4A0500F904FF48050109005210CA8AF
:1052A000FDF728F9002801D072B6FEE713B030BD33
:1052B00040380240007000400248016841F470012B
:1052C0000160704788ED00E0F0B50268274B284D7B
:1052D000284E294F294C4FF0804C984209D0604508
:1052E00007D0A84205D0B04203D0B84201D0A042B6
:1052F00004D122F0700E4A6842EA0E0298421BD096
:10530000604519D0A84217D0B04215D0B84213D08A
:10531000A04211D01A4DA8420ED01A4DA8420BD06F
:10532000194DA84208D0194DA84205D0184DA842E1
:1053300002D0184DA84203D122F44075CA682A430E
:105340004D6922F080022A438D68C5620D6885622E
:10535000984201D0A04201D109690163016841F07E
:1053600004010160012141610260F0BD00000140C3
:105370000004004000080040000C00400004014010
:105380000040014000440140004801400018004036
:10539000001C00400020004010B5846842EA03224F
:1053A00024F47F440A432243826010BD826822F0C5
:1053B00070020A4342F007018160704710B5036A2A
:1053C000046A24F001040462846924F0F00444EACD
:1053D000021423F00A020A438461026210BD10B570
:1053E000036A046A24F010040462846923F0A003B1
:1053F00024F4704444EA023243EA011182610162FA
:1054000010BDFEE770474100080218BF04200A0ED5
:1054100018BF40F001004FF07F4232EA010108BF9F
:1054200040F00200012808BF0520704720F000402E
:10543000C0F1FF40C00F70470907090E002804DBC8
:1054400000F1E02080F80014704700F00F0000F138
:10545000E02080F8141D704710B54FF00E402DED80
:10546000028BB0EE408A18EE104A00EB4400B0F117
:10547000506F4AD84FF0FC40B0EB440F22D2B0EE50
:10548000C80AF7EE000A30EEC00AF6EE000A60EE37
:10549000208A18EE900A01F0DDFA01EE100A14F0ED
:1054A000004F1DBFDFED2D0A9FED2D0AB1EE411A11
:1054B000DFED2C0A08BF9FED2C0AF8EE001A21EE52
:1054C000218A05E0DFED290A68EE088AB0EE600A5D
:1054D0009FED271ADFED271A30EE080A48EE811AF1
:1054E0009FED251A08EEA11ADFED241A48EE811A65
:1054F0009FED231A08EEA11A68EE281ABDEC028B64
:1055000001EE810A30EE200A10BD4FF0E440B0EB0E
:10551000440F0CD918EE100AFFF775FF042808BFD6
:1055200000F0A8FFB0EE480ABDEC028B10BD4FF0B2
:105530007F40B0EB440F07D2B0EE480ABDEC028BBF
:10554000BDE8104000F080BF0120FAF765FFBDEC18
:10555000028BBDE8104000F07DBF00000000C9BF15
:1055600022AAFDB90000C93F22AAFD3900000000AF
:1055700024FE1C3DC78AD83C1E67383D1B93993DCD
:10558000AFAA2A3E10EE100A10B510EE901A4FF096
:10559000684202EB40032DED028BB3F1654F3CBF37
:1055A00002EB4102B2F1654F7CD200BFC0F3C7539A
:1055B000C1F3C7529A1A1B2A09DD10F0004F14BF1D
:1055C0009FED6E0A9FED6E0ABDEC028B10BD12F1CD
:1055D0001A0F1BDA11F0004F09D010F0004F0CBF6A
:1055E0009FED680A9FED680ABDEC028B10BD80EE4E
:1055F000208A18EE100AFFF706FF042808BF00F003
:1056000039FFB0EE480ABDEC028B10BD4200B2EB90
:10561000410F37D910F0004F19BFDFED5C1A9FED35
:105620005C1ADFED5C1A9FED5C1AB0EE602A0A4648
:10563000F1EE400A80F00041B0EE420A10460A1A2C
:105640005200B2F1807F34D2484010F0004FDFEDBD
:10565000532A9FED533A1DBFBEEE002A71EEE21AA7
:1056600031EE431AB6EE002A04BF71EEA21A31EEF3
:10567000031AF0EE402A42EE602A40EE020A82EE61
:10568000A02A18E011F0004F04BF9FED461AF0EE7B
:10569000411AD4D010F0004F1CBFDFED431A9FED2C
:1056A000431A00E026E004BFDFED411A9FED411AE6
:1056B000C5E780EE202A22EE020ADFED3F0ADFED89
:1056C0003F2ABDEC028B40EE202ADFED3D0A40EE82
:1056D000220ADFED3C2A40EE202ADFED3B0A40EEB5
:1056E000220A22EE000A00EE201A31EE020A30EE03
:1056F000210A10BD4FF07F42B2EB400F28BFB2EB42
:10570000410F05D2BDEC028BBDE8104000F09FBEFA
:1057100040EA01035B0008BF41F0FF410BD0B2EB50
:10572000400F08BFB2EB410F08D120F0804000EEDF
:10573000100A21F0804100EE901A37E7B2EB400FDB
:1057400012BF5FEA410240F0FF4001F000413FF428
:105750002DAF4A0092EA40033FF528AF002AACBFC4
:105760009FED1A1A9FED1A1A20EE010A60EE810AC7
:1057700010EE100A10EE901A18E70000DB0FC9BFF8
:10578000DB0FC93FDB0F4940DB0F49C00000C9BF39
:1057900022AAFDB90000C93F22AAFD390060ED3EF2
:1057A000C30ACE3700000000000049C022AA7DBA1B
:1057B0000000494022AA7D3A2DAD65BD8FB8D53D88
:1057C0000FB511BE61C84C3EA8AAAABE0000804F0A
:1057D0000000802F10EE101A08B5444A6846B2EB5C
:1057E000410F28D94FF0E640B0EB410F94BF0020A5
:1057F0004FF0FF3000900098002861DB60EE000A57
:1058000010F0010F45D010F0020FDFED391A9FEDB7
:10581000391A00EEE11ADFED381A40EE811A21EE56
:10582000A01AF0EE400A40EE010A08BFF1EE600A4D
:10583000B0EE600A08BD314B21F0004293423CD9E2
:1058400011F0004FDFED2E0A20EE201ADFED2D0AB9
:1058500019BF31EE601A71EE200A31EE201A71EE96
:10586000600ABDEEE01A11EE100A9FED271A00F053
:10587000030000EEC10A9FED251A009000EEC10A58
:105880009FED231A00EEC10A9FED221A00EEC10A15
:10589000B1E79FED211A9FED210A10F0020F00EEF3
:1058A000810A9FED1F1A00EE801AB7EE000A00EE83
:1058B000810A18BFB1EE400A08BD00F0E3FD9AE787
:1058C00010EE100A4000B0F17F4F3CBFB7EE000A67
:1058D00008BD07D14FF00100FAF79EFDBDE8084072
:1058E00000F0B8BDBDE8084000F0AEBDB61F927E26
:1058F000336D4C39DA82083CA0AA2ABE490E4946CB
:1059000083F9223F0000004B0000C93F00A0FD3991
:105910000020A2331A61342CB93AB2BACA9F2A3D88
:10592000DDFFFFBE10EE100A10B50023A0F5000148
:10593000B1F1FE4F63D200BF00F500216FF07E028F
:1059400002EBE15CC1F302514FF07E5202EB0152D7
:1059500000EE902AA0EBCC5003EB0C0200EE100AF4
:1059600052EA01002CD030EE601A70EE200A9FED52
:105970003B2A3C4881EE200A9FED391A60EE000A6E
:1059800000EE821A60EE201A61EE810A784400EB84
:10599000810090ED001A354871EE200A9FED321A11
:1059A00040EE010A784400EE102A00EB8100B8EEC8
:1059B000C00A90ED001A31EE000A30EE800A10BDE8
:1059C000F7EE000A9FED2B1A70EE600A9FED280A91
:1059D00000EE801A9FED280A60EEA01A00EE810A00
:1059E0009FED261A00EE801A21EE810A9FED241AFF
:1059F00000EE810AB7EE071A00EE810A10BD4FF0E3
:105A00007F41B1EB400F03D2BDE8104000F01CBD58
:105A1000B0F1FF4F08BF10BDB5EEC00AF1EE10FAAD
:105A200006D20120FAF7F8FCBDE8104000F012BDE4
:105A3000B5EEC00AF1EE10FA07D10220FAF7ECFC3D
:105A400000F0F8FCB1EE400A10BDDFED0E0A6FF079
:105A5000160320EE200A10EE100A6DE7C9D5133F99
:105A60004E38763F4C1100003BAA3840141100001C
:105A70000E9C8C3ED0C2B8BEE139F63E3BAA38BF80
:105A8000293BAA3B0000004B10B510EE100A2DED8B
:105A9000068BB7EE001A10EE901AB0EE418A002283
:105AA000A0F5000CDFEDFE9A4FF00073BCF1FE4F45
:105AB0004FF07F4403EB410C80F0B481BCF1804F88
:105AC000C0F02082F74901449FEDF73AB1F5005F3D
:105AD00040F2D48200F58021CB0C03F00F0101EEDF
